:020000020000FC
:1000000029C0000000004A9509F018954AE00D2C1F
:10001000F1D1A6D0D01429F0EE24FF244AE025D156
:100020001895F3940AE0F01621F028E03F2DEDD06A
:100030001895FF2428E03F2DE8D0E3940AE0E0166D
:1000400021F027E03E2DE1D01895EE2427E03E2D4B
:10005000DCD0189507E007BB00E008BB03E207B956
:1000600006E800BF09EF0DBD01E00EBD00E409BFC9
:100070004AE029E03FEFDDD0EAD02AE03FE0D9D0E6
:10008000E6D02BE037E0D5D0E2D02FEF30E0D1D072
:10009000DED02CE031E0CDD0DAD0CBD0D8D021E00A
:1000A00032E0BFD022E030E0BCD00EE810E01DD13D
:1000B00057D001E862D107FD03D1789447D0F89476
:1000C0000B34D8F70931C8F347D00FE7D0226AE0E4
:1000D0004BD04FD032D03AD0013E20F045D03FE057
:1000E0002CD0F6CF0F3A30F063956D3009F461E013
:1000F00033D0EECF0D3740F03CD0332309F43AE053
:100100003A955DD029D0E4CF0B3428F0615009F442
:100110006CE022D0DDCF093140F01ED000E8D02ABB
:10012000EE24FF244AE0B0D1C8CF23D0393009F4FF
:100130003FEF339544D010D0CBCF262F273018F087
:10014000265063D008952E5F6CD0089507ED06B950
:10015000349BFECF05B10895F9DF013EE8F3089521
:10016000B1E01197F1F70895BCE376D01197E9F764
:100170000895F0E0E1EC362F330FE30F3327F31F40
:10018000099400000000322D0895332D0895342D78
:100190000895352D0895362D0895372D0895382D5D
:1001A0000895392D08953A2D08953B2D08953C2D3D
:1001B00008953D2D08953E2D08953F2D0895F0E0BA
:1001C000E7EE062F000FE00F0027F01F0994000054
:1001D0000000232E0895332E0895432E0895532EA4
:1001E0000895632E0895732E0895832E0895932EF7
:1001F0000895A32E0895B32E0895C32E0895D32EE7
:100200000895E32E0895F32E089500E008BB2F9380
:100210003F93222733270DD03F912F910AD017D03B
:10022000089500E008BB05D02227332702D00FD065
:10023000089510E1C198002727FD01E008BB330FA6
:10024000221F0AD0C19A08D01A95A1F70895C29A20
:1002500003D0C19801D00895000000000000000004
:100260000000000000000000089523E0322DD9DFD7
:1002700024E0332DD6DF25E0342DD3DF26E0352DE5
:10028000D0DF27E0362DCDDF28E0372DCADF21E093
:10029000382DBBDF22E0392DB8DF23E03A2DB5DF62
:1002A00024E03B2DB2DF25E03C2DAFDF26E03D2DE5
:1002B000ACDF27E03E2DA9DF28E03F2DA6DF089523
:1002C000F4E0EAEC05901590259035904590559016
:1002D0006590759085909590A590B590C590D590B6
:1002E000E590F5903DDFD0D00895000000000000BB
:1002F00000000000C49A00000000000000000000A0
:10030000202F0ED0212F0CD0000000000000000094
:100310000000C498000000000000000000000895E4
:1003200008E0269510F4C09A01C0C09800000000B3
:10033000000000000000C19A000000000000000062
:1003400000000A9561F000000000000000000000BD
:10035000C19800000000000000000000E2CFC09A39
:1003600000000000000000000000C1980000000034
:1003700000000000000088940895000000000000C4
:1003800000000000C49A000000000000000000000F
:10039000B89A202FC5DFB8980ED0022F00000000B9
:1003A000000000000000C4980000000000000000F1
:1003B0000000B89A089520E008E08894B099089465
:1003C000279500000000000000000000C19A000016
:1003D000000000000000000000000000000000001D
:1003E0000000C198000000000000000000000A9515
:1003F00021F7089500000000000000000000C49AEA
:1004000000000000000000000000B89A2FEB88DF19
:10041000B898D1DF022F0F700068D02E22952F7070
:10042000C22EC9DF022F0F70B02E22952F70A22E80
:10043000C2DF022F0F70902E22952F70822EBBDF0D
:10044000022F0F70702E22952F70622EB4DF022FB4
:100450000F70502E22952F70422EADDF000000004D
:10046000AADF022F0F70302E22952F70222E00004F
:100470000000000000000000C49800000000000020
:1004800000000000B89A08950CE8122D1295132967
:100490002CDF66DE00E81C2D12951D291F7725DF55
:1004A00002E81A2D12951B2920DF04E8182D129559
:1004B00019291BDF06E8162D1295172916DF08E803
:1004C000142D1295152911DF08950200010500066B
:0A04D000010801050405008000008A
:00000001FF
